:100000000C9483050C94CA050C94CA050C94CA057B
:100010000C94CA050C94CA050C94CA050C94CA0524
:100020000C94CA050C94CA050C942E2D0C94EA2C41
:100030000C94292E0C94CA050C94CA050C94CA057C
:100040000C94CA050C94CA050C94CA050C94CA05F4
:100050000C94CA050C94052E0C94CA050C94CA0580
:100060000C94CA050C94CA050C94CA050C94CA05D4
:100070000C94CA050C94CA050C94CA050C94CA05C4
:100080000C94CA050C94CA050C94CA050C94CA05B4
:100090000C94CA050C94CA050C94CA050C94CA05A4
:1000A0000C94CA050C94CA050C94CA0505010902F2
:1000B000A10185020901A100050919012905150001
:1000C00025019505750181029501750381010501E1
:1000D000093009311581257F950275088106093897
:1000E0001581257F950175088106050C0A380215D2
:1000F00081257F950175088106C0C005010980A191
:1001000001850319012AB700150126B7009501756D
:10011000108100C0050C0901A101850419012AA064
:1001200002150126A002950175108100C005010984
:1001300006A1018505050719E029E71500250195A8
:1001400008750181020507190029EF1500250195A1
:10015000F0750181020508190129059505750191C0
:1001600002950175039101C00660FF0961A10109B3
:1001700062150026FF0095207508810209631500AD
:1001800026FF00952075089102C005010906A1010E
:10019000050719E029E71500250195087501810279
:1001A0009501750881010507190029FF150026FF33
:1001B0000095067508810005081901290595057542
:1001C000019102950175039101C00000000000003B
:1001D000000000000000000000000000000000001F
:1001E00000000000000000000000000000007E0F82
:1001F00000D4FFFFFFC700000078000000000000EF
:1002000000002A2B28000000000000000000000071
:10021000000000000029000000002C1E34202122D4
:1002200024342627252E362D3738271E1F2021223D
:10023000232425263333362E37381F0405060708B6
:10024000090A0B0C0D0E0F101112131415161718A6
:10025000191A1B1C1D2F3130232D350405060708E4
:10026000090A0B0C0D0E0F10111213141516171886
:10027000191A1B1C1D2F3130354C783C1E1E140AD8
:1002800005FD377A585A000004E6D6B4460200212C
:100290000116000000742FE5A3E00809028D5D003F
:1002A0003D8889C65436C3174FE4D2B1373C21F29A
:1002B0003FA81727417B2214B128BA5B8542C2743C
:1002C000015CFA12DA2355C5F90020D831C8EC1ABE
:1002D0009656DC62DA08E8D381D68428F20F160B32
:1002E0009CDEDC4E0BCA6CD8B600905A1F1DDF0393
:1002F000F03D72341E782F0A450AABDCAF23F23E84
:1003000093DE6C67E00FD5800F0960C1E381C99B64
:10031000775F6C7CD5821512909585DED235F8AF6B
:1003200083DE2C23A6AA71528B6C8E579ED18F83AD
:10033000731F3E45548D6C0C795442075520D925C6
:100340009E74F2F2C1B88BEE9905874206C98516F4
:10035000CE8C7682B1E104E5763CB4AC9F65BE07F5
:10036000D492A37C2E7C689A217666F8277F250A92
:10037000931B3CAF29197CD6D6DCAF358DCB078BD0
:1003800081F9914E1A924B11F5B6A960D1329E8D2A
:10039000EDF5826A1707BD29454EBAB68F350DAD0A
:1003A000259C01EE9503822219D65BF81F9E29D168
:1003B0000A909D1EB7C0EE6CC19A1CA791934F4046
:1003C000439582377295AB78830E3B23B55A202331
:1003D000999055B6B2835668DF74FA3F103B706F40
:1003E0004B89E63C3C131D578C0CF013ECABD25AF6
:1003F000D1854DBE70EBEFB17A4B0C6466ED968102
:10040000AC60A52B4FB047AB3952800B16A4949229
:100410002EC6B204BB5DCD861EECCC5F49B8898F79
:10042000EE619752AD656DE607318C84559E1532AD
:100430002476F6B58C53D290209EB267E2B5C28383
:1004400014634BE117267B5FE9FAE7DA82B471D2D5
:100450004F36E7159E8D86263475D4F0697426ECE8
:100460000304BFF07807EB1BF29977E7231F1348CB
:10047000D07D6EAAAB3CF96091D03A7768307C278A
:100480000E93D08D0A62B18296FE827E70BB475C6D
:10049000828E4D0AE794A4E6B99F7A34E4EA15E522
:1004A00097EAF2D83E97F57136F4C7265389B2F42D
:1004B00008861397E41B0D551DC41246E993D9D342
:1004C000DDA5EC617D0D226AD61FE1CED60969E477
:1004D00083CAA3DD33BE99563D4DDCD18CA903F907
:1004E0007F261484617A1FF44E84F628605104E458
:1004F000090F0A257243A83084ACD8D5F4169FF9A9
:10050000EE854CB1FB998B6B434377A9E83597187F
:10051000656E5017ED465FEB7286388B8C088DCA7E
:100520009207F8BD418F084C7AA7F7FF80000000C2
:10053000002C4827EE05CB6A6E0001A9058A100041
:1005400000A4EE64ABB1C467FB02000000000459D4
:100550005A0001010101010101010102020202022E
:10056000020202020303030303030303040404045B
:100570000404040505050505060606060607070723
:10058000070708080808090909090A0A0A0B0B0BDA
:100590000C0C0C0D0D0D0E0E0E0F0F0F1010111177
:1005A00011121213131414151516161717181819FB
:1005B000191A1A1B1B1C1D1D1E1E1F202021222262
:1005C000232424252626272829292A2B2C2D2D2EA5
:1005D0002F30313232333435363738393A3B3C3DBF
:1005E0003E3F404142434445464748494A4C4D4EB0
:1005F0004F50515354555658595A5B5D5E5F616276
:1006000064656668696B6C6D6F7072737577787A04
:100610007B7D7E8082838587888A8C8E8F9193955F
:1006200096989A9C9EA0A2A3A5A7A9ABADAFB1B383
:10063000B5B7BABCBEC0C2C4C6C9CBCDCFD1D4D663
:10064000D8DBDDDFE2E4E7E9EBEEF0F3F5F8FAFD05
:10065000FF2223252628292A2C2D2F303233353608
:10066000383A3B3D3E4042434547494A4C4E505143
:10067000535557595A5C5E6062646668696B6D6F6A
:1006800071737577797B7D7F81838587898A8C8E6D
:1006900090929496989A9C9E9FA1A3A5A7A8AAAC75
:1006A000AEAFB1B3B4B6B8B9BBBCBEBFC1C2C3C5AF
:1006B000C6C7C9CACBCCCDCED0D1D2D2D3D4D5D651
:1006C000D7D7D8D9D9DADADBDBDBDCDCDCDCDCDD84
:1006D000DDDDDDDCDCDCDCDCDBDBDBDADAD9D9D868
:1006E000D7D7D6D5D4D3D2D2D1D0CECDCCCBCAC900
:1006F000C7C6C5C3C2C1BFBEBCBBB9B8B6B4B3B12F
:10070000AFAEACAAA8A7A5A3A19F9E9C9A989694C9
:1007100092908E8C8A89878583817F7D7B7977759E
:1007200073716F6D6B6968666462605E5C5A59577D
:10073000555351504E4C4A4947454342403E3D3B3C
:100740003A3836353332302F2D2C2A2928262523C6
:100750002200001E001F00200021002200230000B4
:1007600000420043004400450049004A004B002B72
:100770000014001A000800150017001C0018000CD7
:1007800000120013002A004C004D004E00294104C5
:10079000001600070009000A000B000D000E000FF4
:1007A0000034002800280028000000E10064001D3B
:1007B000001B00060019000500110010003600376C
:1007C000003800000052000000E0000000E300E2FA
:1007D000002C002C002C0000006500E600E700E47F
:1007E00000500051004F0000000100010001000115
:1007F00000010001000000010001000100010001F2
:10080000000100010035001E001F00200021002211
:10081000002300240025002600270001000100011C
:1008200000010001005000510052004F0033002D24
:10083000002E002F0030000100340034003400008E
:1008400000010001003A003B003C003D003E003F3B
:100850000031000100010001000000010000000162
:10086000000000010001000251025102510000018C
:100870000001000100010001000100010000000171
:100880000001000100010001000100000001000161
:10089000000100010001000100005C35021E021F82
:1008A000022002210222022302240225022602271C
:1008B000024C0001000100010001004D004E004B00
:1008C000004A0033022D022E022F023002010034B2
:1008D00002340234020000010001004000410042E5
:1008E0000043004400450031020100010001000006
:1008F00000010000000100000001000100010001F2
:1009000000010000000100010001000100010001E0
:1009100000010000000100010001000100010001D0
:1009200000000001000100010001000100010001C0
:1009300000010001000100010001000100010001AF
:10094000000100010001000100010001000100019F
:10095000000100010001000100010001000100018F
:100960000001000100010001000100000001000180
:10097000000100010001000100010001000100016F
:100980000001000100000001000000010000000162
:100990000001000100010001000000010001000150
:1009A000000100010001000100010001005E0400DF
:1009B00000020002005A040000030001005F04006E
:1009C000000400020044041B08050001006004004C
:1009D000000600020046040000070002005C04005C
:1009E000000800010061040000090002004804F64C
:1009F000070A0002004A04F6070B0002004C04F646
:100A0000070C0002004E04F6070D0002005004F629
:100A1000070E0002005204F6070F0002005404F60D
:100A200007100002005604F607110002005804F6F1
:100A300007120002006204000013000200640400B8
:100A40000009025B00030100A0FA09040000010391
:100A50000101000921110100012240000705810365
:100A600008000A0904010002030000000921110125
:100A7000000122220007058203200001070503036D
:100A800020000109040200010300000009211101F6
:100A9000000122BC000705840320000A12010002A5
:100AA00000000008EDFE60600100010203011C036C
:100AB0007600690061006C003A0066003600340080
:100AC000630032006200330063000000140334004E
:100AD000300072006D006900650020007600330070
:100AE00000001E034B00750072006F0020007400B0
:100AF0006800650020004300720061007A00790000
:100B000000000403090411241FBECFEFDAE0DEBFAA
:100B1000CDBF04B603FE27C08091AA049091AB0418
:100B2000A091AC04B091AD048730904BA740B04B7E
:100B3000D1F41092AA041092AB041092AC0410925B
:100B4000AD0414BE84B7877F84BF0FB6F894A89510
:100B500080916000886180936000109260000FBEF9
:100B6000E0E0F8E3099511E0A0E0B1E0ECE1FFE698
:100B700002C005900D92A439B107D9F724E0A4E989
:100B8000B1E001C01D92AA3AB207E1F70E94502ECF
:100B90000C945A370C940000E8EDF0E080818E7FD1
:100BA00080831092E2001092DA001092E100A0EE31
:100BB000B0E08C9181608C9380818F77808319BCA9
:100BC000A7EDB0E08C918E7F8C9380818F7E8083A7
:100BD00010927A0408952091E4003091E50095E6A2
:100BE000A9012091EC00822F817020FF06C0809126
:100BF000E80080FF06C080E008952091E80022FD13
:100C00001AC080919F04882389F0853089F08091F3
:100C1000EB0085FD0FC02091E4003091E500421704
:100C20005307F9F29150E1F684E0089582E00895C7
:100C300083E0089581E00895EF92FF920F931F9350
:100C4000CF937C018B010E94EB05C82F811117C047
:100C50008091E80085FD0BC08091E8008E7780933D
:100C6000E8000E94EB05882399F3C82F08C0F7011C
:100C700081917F018093F1000150110949F78C2F78
:100C8000CF911F910F91FF90EF9008958091A10453
:100C900087FF13C08091E80082FF06C08091E800C2
:100CA0008B778093E80004C080919F048111F2CF7C
:100CB000089580919F048823D9F38091E80080FFF4
:100CC000F8CF8091E8008E77ECCF982F9093E900D1
:100CD000242F762F50E0891731F07091EC0020918D
:100CE000ED005091F00021FD07C09F5F973071F734
:100CF0008093E90081E008953091EB003E7F3093CE
:100D0000EB003091ED003D7F3093ED003091EB0032
:100D100031603093EB007093EC002093ED00509322
:100D2000F0002091EE0027FDE0CF80E00895CF9203
:100D3000DF92EF92FF920F931F93CF93DF93C8ED53
:100D4000D0E088818F7E8883E7EDF0E0808181604C
:100D5000808384E082BF81E080937A0488818E7FE3
:100D6000888302EE10E0F80110821092DA0081EE22
:100D7000C82ED12CF601108288818F7788838881D4
:100D80008068888388818F7D888319BC10929F0436
:100D90001092A00410929E0410929D0490EEE92EF1
:100DA000F12CF70180818B7F80838881816088832B
:100DB00042E060E080E00E946506F60180818E7F5F
:100DC0008083F80180818160808380818860808356
:100DD000F70180818E7F8083888180618883DF91A5
:100DE000CF911F910F91FF90EF90DF90CF900895DA
:100DF000FC018091A7049091A80486179707A0F0A2
:100E00006115710529F49091E8009E779093E800B0
:100E100090E06115710551F4911108C08091E800CE
:100E200082FF34C080E00895BC01F2CF80919F041E
:100E30008823C1F18530C1F18091E80083FD30C085
:100E40008091E80082FDEACF8091E80080FFE1CF49
:100E50008091F3002091F200382F6115710519F08F
:100E60002830310558F091E02830310509F090E044
:100E70002091E8002E772093E800CBCF81918093DA
:100E8000F100615071092F5F3F4FE7CF80919F04C0
:100E9000882341F0853041F08091E80083FFBECF88
:100EA00081E0089582E0089583E0089580917C04B4
:100EB00008959C014FB7F894809171049091720449
:100EC000A0917304B09174044FBF821B930B0895DB
:100ED0002FB7F8948091710490917204A0917304DB
:100EE000B09174042FBF089520916E0430916F0467
:100EF0002817390771F090936F0480936E04E09186
:100F00006C04F0916D04309721F00084F185E02DA0
:100F10000994089520916A0430916B0428173907C9
:100F200071F090936B0480936A04E0916C04F091EB
:100F30006D04309721F00680F781E02D0994089523
:100F4000E0916C04F0916D04309721F00190F081F4
:100F5000E02D099480E00895452B39F0682381E065
:100F60006F3F09F080E08170089581E0FCCFDC01E3
:100F700060918C0380918D03962F891301C0089591
:100F8000292F30E0F901EE0FFF1FEC57FC4F408195
:100F900051814A175B07A1F487E08A9FA0018B9FCC
:100FA000500D1124445B5C4F81E0FA018483961359
:100FB000E6CF2F5F3F4F2370332720938C03089594
:100FC0002F5F3F4F922F9370D8CF1092E90210926B
:100FD000E802ECE4F3E08581811102C014821682FC
:100FE000379683E0E438F807B1F70895E4E4F4E0D5
:100FF000848195812AE030E0B9010E9492366093A5
:101000001501868180931401828580931301848564
:101010008093120186859785B9010E94923660936C
:101020001101808980931001828980930F01848946
:1010300080930E010895809144049091450490930B
:101040001801809317010895FA01811101C0FB0175
:101050000994089580917902982F9E7F29F48170D8
:1010600082608093790208958231E8F38170806113
:10107000F8CFAF92BF92DF92EF92FF920F931F9340
:10108000CF93DF93082F162FE901E42FF0E0EF5AFA
:10109000FA4F611110C0E4915E2F4E2F4983E8830F
:1010A0005A83DF91CF911F910F91FF90EF90DF90C6
:1010B000BF90AF900895E62EF12C4491D42EE42FEA
:1010C000F0E026E0829FC00111242FEF30E0B9014B
:1010D0000E949236802F90E0880F991F55E5569F09
:1010E000D001579FB00D11248A1B9B0B982F990F8D
:1010F000890F5901AE18BF08AE9ED001AF9EB00D4A
:10110000BE9EB00D11245B2F189F80011124012F6A
:1011100011275901A01AB10AAE9E8001AF9E100D91
:10112000BE9E100D11245901A81AB108AE9CC00131
:10113000AF9C900DBE9C900D1124892F9927281BE0
:10114000390B2E9FC0012F9F900D3E9F900D1124B3
:10115000E92F62307105A1F050F46115710509F4B1
:101160009DCF6130710581F0EB2F512F97CF643007
:10117000710569F080F06630710509F48FCFF4CF06
:10118000E42F4B2F592F8ACFE42F412F87CFEB2FFE
:10119000542F492F83CF4B2F5D2DE12F7FCF0E94FE
:1011A00068079C0190915E0280915F02982B21F06C
:1011B00030935B0220935A02909160028091610209
:1011C000982B21F03093590220935802E0916C043F
:1011D000F0916D04309749F082E080935C020480C6
:1011E000F581E02D8CE592E00994089590915E02DE
:1011F000803F59F480915F0287FF0DC010925F021B
:1012000091110BC01092560208C0813F81F4809169
:101210005F0218169CF3992381F0809160029091EF
:101220006102892B09F064C0109255020895823F33
:1012300049F497FFF0CF10925E0280915F02811116
:10124000ECCFE0CF833F19F41916ACF3E4CF209133
:101250006002893F29F41216F4F610926002DBCF87
:101260008A3F19F427FFD7CFF8CF209161028B3F37
:1012700029F427FFD0CF10926102CDCF8C3F19F413
:101280001216CCF3C8CF843F31F480915D028E7F7B
:1012900080935D02C0CF853F21F480915D028D7FF8
:1012A000F7CF863F21F480915D028B7FF1CF873F9E
:1012B00021F480915D02877FEBCF883F21F48091FC
:1012C0005D028F7EE5CF8D3F31F4809157028E7F96
:1012D00080935702A0CF8E3F21F4809157028D7FDB
:1012E000F7CF8F3F09F097CF809157028B7FF0CFD8
:1012F00008958091570280FF0CC060910F0170E04B
:1013000075956795759567956115710549F1862FF6
:10131000089581FF06C060910F0170E07595679593
:10132000F3CF60910F0182FD0BC09091550299237C
:10133000A1F060910E0180910F01961738F0682F8F
:1013400070E06038710500F38FE70895899FC00150
:10135000112470E00E94A636F4CF61E070E0D7CF90
:1013600081E008958091570260914C0470914D0482
:1013700080FF16C020911301269FC001279F900D6A
:101380001124BC017695679576956795603871054F
:1013900008F043C06115710509F441C0862F089516
:1013A00081FF0BC020911301269FC001279F900D44
:1013B0001124BC0176956795E9CF82FF09C0809121
:1013C00013019B01829FB001839F700D1124DECF1A
:1013D000209156022223D1F29091120180911301A3
:1013E000482F50E0291748F0CB01849FB001859F1A
:1013F000700D949F700D1124C9CF289F9001112466
:10140000269FA001279F500D369F500D1124692F54
:1014100070E0CA010E949236B9CF8FE7089581E04B
:101420000895803F31F40E94B209819580935F0254
:101430000895813F19F40E94B209F8CF823F31F438
:101440000E94B209819580935E020895833F19F44A
:101450000E94B209F8CF893F29F40E94790980934C
:10146000600208958A3F21F40E9479098195F7CF9F
:101470008B3F31F40E947909819580936102089530
:101480008C3F19F40E947909F8CF843F31F48091A0
:101490005D02816080935D020895853F21F4809113
:1014A0005D028260F7CF863F21F480915D02846007
:1014B000F1CF873F21F480915D028860EBCF883FB8
:1014C00021F480915D028061E5CF8D3F31F4809100
:1014D000570281608093570208958E3F21F48091D6
:1014E00057028260F7CF8F3FB9F78091570284602F
:1014F000F1CF80E00895F894E82FE295EF70F0E0E6
:1015000031A1282F2F7081E090E001C0880F2A952B
:10151000EAF7982F9095932391A392A1892B82A308
:10152000789408959091750492FF06C0282F287131
:101530002830F9F4877F846093FF06C0282F287134
:101540002831F1F4877E84612091760420FF06C063
:10155000382F38713830D9F4877F816021FF06C079
:10156000282F28712831D1F4877E816194FD877EF0
:101570000895282F24712430F9F68B7F8860DCCF02
:10158000282F2471243101F78B7E8861DDCF382F1D
:101590003171313019F78E7F8860E0CF282F2171AB
:1015A000213121F78E7E8861E1CFCF93DF93EC016B
:1015B00082389105A9F1D8F58133910509F496C0D7
:1015C00048F58932910509F48AC08A9709F495C0D3
:1015D000C11521E5D20708F0BCC0C11530E5D3071D
:1015E00008F014C1C83ED10508F09CC0C03ED1052A
:1015F00060F5C83AD10508F087C0C53AD10508F0B2
:10160000FDC0C130D10509F12097F9F0C430D105F2
:10161000E0F440C08533910509F45AC0C997C1F67A
:1016200080917504837089F0C0EED0E00EC0833ED7
:10163000910599F170F4803E910501F1823E91058A
:1016400039F68091750482FD21C0CE01DF91CF91E2
:101650000895863E910561F1873E910571F1843EC2
:10166000910509F0B5CF8091760481FFEECF80918E
:101670007504C7EED0E084FD0DC0E7CF80917504FE
:1016800080FD12C19091760490FFDFCFC3EED0E0D1
:1016900084FFDBCFD0E0C0E0D8CF8091750482FD1D
:1016A00006C19091760490FDBFCF84FFCECFF2CFDC
:1016B0008091750483FDDDCFC8CF8091750483FDD3
:1016C000F9C09091760491FFF0CFC4EED0E0BDCF89
:1016D0008091750485FFB9CFC9E2D0E0B6CF809183
:1016E000750485FFB2CFC5E3D0E0AFCF809175041C
:1016F00086FFABCFCAE2D0E0A8CF8091750486FF09
:10170000A4CFC1E3D0E0A1CFCF3BD10518F6C85A92
:10171000D0E0CC0FDD1FCA5DDE4F0990D881C02D0F
:10172000D46493CFC11540E2D40758F4C11581E0C9
:10173000D80708F08ACFC03FD10508F4ABCFD065F9
:1017400084CFC11590E4D90708F4A4CFDF70D06A24
:101750007CCFC11525E5D20700F5C11534E5D307C7
:1017600008F08AC0C11543E5D40708F071C0C1155F
:1017700082E5D80708F467C0CE018370992721E07D
:1017800030E002C0220F331F8A95E2F7C695C69556
:1017900080E2C89FE001112452C0C11599E5D90724
:1017A000A8F4C11528E5D20708F06BC0C11536E5CD
:1017B000D30708F06FCF8C2F0E94920AC82FD0E079
:1017C000DC2FCC27CC27DF71D0623FCFC1154AE593
:1017D000D40708F45BC0CE0190568115904208F002
:1017E00059CF8D2F8F710E94920A90E0982F8827F1
:1017F00088279F719C012C2BE901E6CFC55AD0E0C8
:10180000CD5DDE4FC881D0E0D0641FCFCE01E4E0D3
:1018100096958795EA95E1F783702C2F2695269566
:10182000237040E2249F90011124382B8C2F837069
:10183000C1E0D0E002C0CC0FDD1F8A95E2F7C22BD9
:10184000D32BDC6802CFDC2FCC27C16FD06AFDCE52
:10185000CE018370992721E030E002C0220F331FB0
:101860008A95E2F7C695C69590E2C99FE0011124DA
:10187000C22BD32BDA68E9CEDC2FCC27C46FD06A19
:10188000E4CEDC2FCC27C06FD06ADFCE8C2F8F70D8
:101890000E94920A34E0D695C7953A95E1F7CF7049
:1018A0009C2FEC01D069D1CEC9E3D0E0CECEC2EE00
:1018B000D0E0CBCEC6EED0E0C8CE809128028823FF
:1018C00031F01092280210922702109226020895F9
:1018D00080959091430498239093430408958095B4
:1018E0009091420498239093420408951092240208
:1018F0001092230210922202089580914604909142
:101900004704892B89F00E946807209126023091B4
:101910002702AC01421B530B81E020914604309119
:1019200047044217530708F480E0817008958091BE
:10193000420490914304892B90912502892B809336
:10194000960180912802882319F180914604909194
:101950004704892B29F00E947D0C81110E945D0CA7
:101960008091960190912802892B80939601809115
:101970001A01882341F18091750487FF24C08EE10C
:10198000E8E9F1E090E0815000F591110E945D0CD2
:10199000E0916C04F0916D043097E1F080911A01B0
:1019A000882359F08091750487FF07C080919601C4
:1019B0008093970185E0809396010280F381E02D6A
:1019C00086E991E0099486E0DBCF21912223D9F2C8
:1019D0009F5FD9CF0895CF93DF93EC0181E0898B8E
:1019E000809142049F81892B80934204809143041B
:1019F0009885892B809343040E94970CEA81FB8190
:101A0000309739F06C897D89CE010696DF91CF91B0
:101A10000994DF91CF910895EF92FF920F931F9356
:101A2000CF93DF93EC018A85811134C0EB80FC8079
:101A300087E5F81A26E12E9DC0012F9D900D1124F7
:101A4000DC01AE56BC4F1496ED91FC911597309782
:101A500031F054966D917C9188569C4F099586E1A2
:101A60008E9D80018F9D100D11240E561C4FF80184
:101A700087810E946F0CF80180850E94680C0E948B
:101A8000970C188219861B861E821D821092910364
:101A900010929003DF91CF911F910F91FF90EF90E3
:101AA0000895809121028111109221020895909150
:101AB0001A019923D1F09091750497FF16C0E82F71
:101AC000E695E695E695EE31E0F4F0E0EA56FE4F55
:101AD000282F277081E090E001C0880F2A95EAF74F
:101AE00080959281892382830895E8E9F1E09191BC
:101AF000891303C0DF0111971C9291E0EE39F907B9
:101B0000B1F7089590911A019923C1F0909175044D
:101B100097FF14C0E82FE695E695E695EE31F8F4C8
:101B2000F0E0EA56FE4F877021E030E001C0220F5E
:101B30008A95EAF78281822B82830895A8E9B1E031
:101B4000EFEF90E02D91821751F0EF3F19F4211142
:101B500001C0E92F9F5F9630A9F7EF3F09F4089580
:101B60000E2E000CFF0BEA56FE4FE6CF209120020E
:101B70009091DF01291302C080E0089530E0F9015F
:101B800053E0EE0FFF1F5A95E1F7E052FE4F5181EF
:101B9000561306C05081581303C05281541304C019
:101BA0002F5F3F4F2770E6CF81E00895809120029C
:101BB0009091DF01981301C008958F5F8770FACF6D
:101BC0009E3F49F1E82F2FE0929FE00D11249E2FB8
:101BD0009770E695E695E69583E0E89FF00111247D
:101BE000E754FE4F50E040E080E0219130E0092EC4
:101BF00002C0369527950A94E2F721703327042E08
:101C000001C0220F0A94EAF7822B4F5F5F4F4330E7
:101C1000510559F7089580E008959E3F69F1E82F36
:101C20002FE0929FE00D11248E2F877041E001C0BC
:101C3000440F8A95EAF7E695E695E69583E0E89FF6
:101C4000F0011124E754FE4F30E020E070E05191A4
:101C5000DF011197CB01022E02C0969587950A9459
:101C6000E2F7817081958527842385278C932F5FE8
:101C70003F4F2330310559F70895E92FE295EF7072
:101C8000E250EE3070F4F0E0E45AF84C0C94BA36BE
:101C9000803F19F020F4883E20F481E00895843FCD
:101CA000E1F380E00895883EC0F3813FD1F7F5CF9E
:101CB00093FB882780F9089590E080E00E948A07CE
:101CC00090E080E00E947407109243041092250275
:101CD0000E94970C86E0ECE5F2E0DF011D928A9508
:101CE000E9F71092560210925502109257020C9486
:101CF000CF088093A9040C945C0E8091A904982FBE
:101D00009670963019F488600C94790E877FFCCF1A
:101D100021E030E001C0220F8A95EAF720958091FA
:101D2000A90482230C94790E909124028095892332
:101D300080932402282F277039F4282F082E000CB6
:101D4000330B9217130621F49091760492FF07C08B
:101D50008595859585950E94880E0C94760C08953E
:101D600021E030E001C0220F8A95EAF78091A904B2
:101D7000822B0C94790E9091760492FD10C098E01D
:101D8000899F90011124622B609324020E94B00E5F
:101D90000E946807909323028093220208950C9476
:101DA000B00E80937E020C945C0E882321F00E947A
:101DB000680C0C94970C0895882339F09091430493
:101DC000982B909343040C94970C0895882321F04A
:101DD0000E946F0C0C94970C0895882339F0909111
:101DE0004204982B909342040C94970C08958823F6
:101DF00009F452C0823871F40E94A00781FF4CC0E0
:101E000089E30E94820D0E94970C89E30E94570D7E
:101E10000C94970C833859F40E94A00780FF3CC0B3
:101E200083E50E94820D0E94970C83E5EFCF8438F2
:101E300059F40E94A00782FF2FC087E40E94820D00
:101E40000E94970C87E4E2CF9CEF980F913AF0F252
:101E500090E2980F983050F4877091E001C0990F8C
:101E60008A95EAF7892F0E946F0CD2CF9BE5980FD5
:101E7000933020F490E080E00C948A0798E5980F66
:101E8000973120F490E080E00C947407803F20F0BC
:101E90000E94F6080C94CF0808959C013A952115EC
:101EA0003F4150F5FC01EE27F170BC0166277270CE
:101EB000AC01442754709C012227387094FF0EC057
:101EC00080E1EF2B09F480E0672B09F08062452B5D
:101ED00009F08064232B89F08068089581E0EF2B5E
:101EE00009F480E0672B09F08260452B09F08460DB
:101EF000232B19F08860089580E0089590919F0445
:101F0000943029F580937704709379046093780472
:101F10009093E9008FEF9091E800815095FD06C005
:101F200095ED9A95F1F700008111F5CF8091E800C9
:101F300085FF0DC050E040E063E070E087E794E08B
:101F40000E941C068091E8008E778093E800089537
:101F5000BC0184E00C947E0FBC0183E00C947E0FE6
:101F60009C0184E08093E9009FEF8091E80091500C
:101F700085FD06C085ED8A95F1F700009111F5CF3A
:101F80008091E80085FF0CC050E040E066E070E022
:101F9000C9010E941C068091E8008E778093E800BA
:101FA0000895CF93DF93EC0180911A018823B1F15A
:101FB0008091750487FF32C060E284E08093E9007D
:101FC0008FEF9091E800815095FD06C095ED9A95B0
:101FD000F1F700008111F5CF8091E80085FF1BC06B
:101FE00080911A0170E050E040E0811104C050E09F
:101FF00040E068E070E0CE010E941C068091E8009D
:102000008E778093E80080E2FE01ADE7B4E00190B6
:102010000D928A95E1F7DF91CF91089568E081E014
:10202000CDCF81E08093E00080E28093D8001092D1
:10203000C9008FE19EE40197F1F700C0000087E03E
:1020400090EBDC018093AA049093AB04A093AC04C2
:10205000B093AD0488E19CE00FB6F894A895809306
:1020600060000FBE90936000FFCF019708F40895C1
:10207000EFE9FFE03197F1F700C00000F6CF809163
:10208000790280FD0AC0EAE6F2E011821082128233
:10209000339652E0E937F507C1F7879A31B33F77B6
:1020A00021B320684FB7F8948AE692E0FC01519181
:1020B000CF0168E021BB000000C057FF31BB550FC6
:1020C000000000C000C000C031BB00C06A9591F79D
:1020D000F2E089379F0751F74FBF8FE594E00197F2
:1020E000F1F700C0000008959091790290FF0CC0B4
:1020F000EAE6F2E0818360834283339692E0E93737
:10210000F907C1F70C943F100895CF93DF9300D0E7
:102110000F92CDB7DEB79091790290FF0AC09E0171
:102120002F5F3F4F0E9439084B8169818A810E944D
:1021300074100F900F900F90DF91CF910895CF936F
:10214000DF93EC01E9E7F2E0438162818C810E9438
:1021500085108C818F5F8C83DF91CF910895CF9311
:10216000DF93EC01EC81F0E0EF5AF94F4491E9E79D
:10217000F2E0628181810E9485108C818F5F8C8367
:10218000DF91CF910895CF93C82F882309F4AEC073
:102190008238C1F40E94A00781FDA8C089E30E9493
:1021A000820D0E94970C2FEF81EE94E02150804029
:1021B0009040E1F700C0000089E30E94570DCF91E5
:1021C0000C94970C8338A1F40E94A00780FD8EC068
:1021D00083E50E94820D0E94970C2FEF81EE94E020
:1021E000215080409040E1F700C0000083E5E5CF3A
:1021F0008438A1F40E94A00782FD78C087E40E9481
:10220000820D0E94970C2FEF81EE94E021508040C8
:102210009040E1F700C0000087E4CFCF8CEF8C0F37
:10222000813A88F580911A01882301F18091750423
:1022300087FF1CC0EC2FE695E695E695F0E0EA56A0
:10224000FE4F828190E04C2F477021E030E002C0C9
:10225000220F331F4A95E2F782239323892B79F0CB
:102260008C2F0E94570D0E94970C09C0E8E9F1E0FD
:102270008191C817A9F321E0EE39F207C9F78C2F35
:102280000E94820D9CCF80E28C0F883068F4C7706A
:1022900021E030E001C0220FCA95EAF780914204A4
:1022A000822B809342048BCFEBE5EC0FE33040F4BC
:1022B000F0E0ED5DFE4F808190E0CF910C948A07B5
:1022C000E8E5EC0FE73150F4F0E0EE0FFF1FEA5DB8
:1022D000FE4F80819181CF910C947407C03F30F004
:1022E0008C2F0E94110ACF910C94CF08CF910895A2
:1022F000FF920F931F93CF93DF938C01EB01F42E8A
:102300008091190182FF43C08B7F809319018091D6
:1023100066042091680430916904AB01421B530BA1
:102320009A01409117015091180124173507A8F41C
:102330000E94C310809119018D7F809319018091B3
:102340006204909163040E943510809166040E949B
:10235000F70E82E00E94680C24C0909143049260C2
:10236000909343040E94C31080911901826080936E
:10237000190180915F0485FFE2CF86FDE0CFFF2049
:10238000F1F2DF91CF911F910F91FF900895802F6F
:102390000E94F70E80916604909167048017910760
:1023A000C1F20E94970CD0936904C0936804E9CFEE
:1023B0001F93CF93DF93182FC0916404D0916504CD
:1023C000893321F0C0916204D0916304812F0E946F
:1023D000C310209731F4812FDF91CF911F910C947E
:1023E000F70E8FE99FE00197F1F700C000002197F9
:1023F000F0CF0F931F93CF93DF93C42FD22FFC0105
:1024000082818823A1F04093E7020E94680790939D
:10241000E6028093E502C77081E001C0880FCA958B
:10242000EAF7DF91CF911F910F910C94ED0E10916F
:10243000E702141339C08091E5029091E6020E94F0
:10244000590720915C0430915D048217930760F571
:10245000C0E2CD0F1D17B9F080E2810F883040F443
:10246000177081E001C0880F1A95EAF70E94E60E06
:10247000C83048F481E09D2F977001C0880F9A956D
:10248000EAF70E94ED0E802F0E94D811C83098F410
:10249000D77081E001C0880FDA95EAF7DF91CF911C
:1024A0001F910F910C94E60EC77081E001C0880F58
:1024B000CA95EAF7F3CFDF91CF911F910F9108955D
:1024C000AF92BF92CF92DF92EF92FF920F931F9342
:1024D000CF93DF93EC018AE0A82E2881222309F410
:1024E0008CC02130C9F599818A81913021F42296DE
:1024F0000E94D81105C0923029F422960E94C31080
:102500002196EBCF933021F422960E94F70EF8CF5C
:10251000943011F02196F4CF229630E020E0AE0105
:102520004F5F5F4F8053990B8A30910550F02150D7
:10253000310930F38FE99FE00197F1F700C0000007
:10254000F6CFA29EB001A39E700D11249C01260F10
:10255000371F8981EA01E3CFE22FF0E0E650FE4F1A
:10256000B490822F86958695869590E0FC01E65181
:10257000FE4FE4902770F12C022E02C0F594E794F0
:102580000A94E2F731E0E322FF24FC01E652FE4F19
:10259000C490D12C022E02C0D594C7940A94E2F7BD
:1025A00031E0C322DD24FC01E653FE4F049110E02C
:1025B00002C0159507952A95E2F701701127E114DD
:1025C000F10419F081EE0E94C310C114D10419F076
:1025D00086EE0E94C3108B2D0E94D811CD2819F0D1
:1025E00086EE0E94F70EEF2819F081EE0E94F70E9A
:1025F000012B09F485CF8CE27BCFDF91CF911F9126
:102600000F91FF90EF90DF90CF90BF90AF90089523
:102610000F931F93CF93DF9304E414E0CFE9D2E04C
:10262000CE010E940A37F80181938F012196C13CA7
:10263000F2E0DF07A9F7CFEAD9E0FE018591949196
:10264000009711F0FC0109952896FAE0C734DF07DE
:10265000A1F7DF91CF911F910F9108950F931F93D1
:10266000CF93DF93843038F5623028F528E0829FDD
:10267000C001112434E0639FB0011124860F971F1D
:10268000C42FD0E0CC0FDD1FC80FD91FC158DD4FBC
:10269000CE010E940A37082F10E0102F0027CE012C
:1026A00001960E940A379801282BC901DF91CF912A
:1026B0001F910F91089590E080E0F8CF0F931F9342
:1026C000CF93DF93843030F5653020F54F3010F52F
:1026D000C42FD0E0CC0FDD1F2EE1629FC00DD11DB5
:1026E000112436E9839FC00DD11D1124CE01879698
:1026F0000E940A37082F10E0102F0027CE0188967D
:102700000E940A379801282BC901DF91CF911F91B0
:102710000F91089590E080E0F8CF462F2091E302DA
:102720003091E402232B91F47E3F39F46E3F71F433
:102730008091E1029091E2020895843038F475307E
:1027400028F46F3018F4672F0C945E1390E080E04B
:102750000895CF92DF92FF920F931F93CF93DF9351
:102760006C010091A90480917E02082BC7E0D0E0A3
:1027700010E0FC2EC8010C2E02C0959587950A9496
:10278000E2F780FD0CC02197A0F7F12C8F2DDF918F
:10279000CF911F910F91FF90DF90CF900895B601D8
:1027A0008C2F0E948D130E94D50A019761F3EECF02
:1027B000CF93DF93EC010E94A913BE010E948D13F9
:1027C000DF91CF910C94D50AFC0186819781009707
:1027D00021F00E94D50A0C943D0E808191810E94C7
:1027E000D813F9CF1F93CF93DF9300D000D00F926F
:1027F000CDB7DEB749835A8389819A816623B9F0C0
:102800002223A9F00E94A913182F682F89819A8189
:102810000E940D0E69817A81812F0F900F900F9089
:102820000F900F90DF91CF911F910C948D130E9408
:10283000E00D182FEFCFFC01262F8681978100979E
:1028400039F4408151816281738184810C94F21347
:10285000089583E290E00E940A37803189F484E28F
:1028600090E00E940A37853359F485E290E00E9497
:102870000A3791E0813809F090E0892F817008953E
:1028800080E0FCCFCF9384E090E00E940A37C82F0D
:1028900082E290E00E940A37982F8C2FCF91089502
:1028A0000F931F93CF93DF9304E414E0CFE9D2E0BA
:1028B000CE010E940A37F80161918F01681719F063
:1028C000CE010E941E372196C13CF2E0DF0781F75E
:1028D000DF91CF911F910F910895E4E4F4E0128EFF
:1028E000138E8FEA90E09183808385E0848F88E85F
:1028F00093E1938382834CE251E05583448322E346
:1029000030E03783268385E090E0918780878AE0F6
:1029100090E09387828764E170E0758764875787CA
:10292000468744E650E0518B408B48E050E0538BA3
:10293000428B48E250E0558B448B378B268B28EC3A
:1029400030E0318F208F158E978F868F80E590E055
:1029500091A380A30E9450140C940813CF93DF938B
:10296000C1E6D3E060E0CE010E941E372196C1157A
:1029700084E0D807B9F7DF91CF9108950F931F93A3
:10298000CF93DF938901843068F5623058F5423087
:1029900048F501152CE5120731F420910C01309116
:1029A0000D01232BF9F028E0829FC001112424E0BF
:1029B000629FB0011124860F971FC42FD0E0CC0F67
:1029C000DD1FC80FD91FC158DD4F612FCE010E94F6
:1029D0001E37602FCE010196DF91CF911F910F918D
:1029E0000C941E37DF91CF911F910F9108950F9393
:1029F0001F93CF93DF938901843048F5653038F514
:102A00004F3028F521153C4531F420910C013091CF
:102A10000D01232BE1F0C42FD0E0CC0FDD1F9EE190
:102A2000699FC00DD11D112496E9899FC00DD11D4C
:102A30001124612FCE0187960E941E37602FCE0190
:102A40008896DF91CF911F910F910C941E37DF91E3
:102A5000CF911F910F910895CF93C82F6FEF8111E0
:102A600060E183E290E00E941E376FEFC11165E3E1
:102A700084E290E00E941E376FEFC11161E885E2A9
:102A800090E0CF910C941E37CF93C0917604C2FB97
:102A9000992790F9981781F080FBC2F9C0937604CA
:102AA0006091750484E090E00E941E376C2F82E2F2
:102AB00090E0CF910C941E37CF9108957F928F9222
:102AC0009F92AF92BF92CF92DF92EF92FF920F93BD
:102AD0001F93CF93DF93CDB7DEB764970FB6F8940B
:102AE000DEBF0FBECDBFA0900C01B0900D0181E004
:102AF00090E090930D0180930C0181E5C82E87E052
:102B0000D82E10E0760100E015C0F4012591349133
:102B1000472D602F812F0E94F71482E0880E911CB0
:102B20007394EFE07E12F1CFFEE1EF0EF11C0F5F28
:102B3000053019F04701712CE8CF21E030E040E08A
:102B400060E0812F0E94BE1421E030E041E060E0AF
:102B5000812F0E94BE1421E030E040E061E0812F2F
:102B60000E94BE1421E030E041E061E0812F0E942C
:102B7000BE141F5F86E9C80ED11C143009F0C2CF05
:102B80000E946D141A8219821C821B821E821D8271
:102B900018861F8288EC90E09A87898701EC12E002
:102BA0004AE050E0B801CE0101960E944237065F2C
:102BB0001F4F0131E3E01E0799F77E01FBE0EF0EA6
:102BC000F11C8AE0F70111928A95E9F74AE050E09A
:102BD000B801C7010E944237065F1F4F0136F3E07C
:102BE0001F07A1F7B0920D01A0920C0164960FB6D9
:102BF000F894DEBF0FBECDBFDF91CF911F910F9133
:102C0000FF90EF90DF90CF90BF90AF909F908F900C
:102C10007F90089580E00E942C1560E086E290E0AD
:102C20000E941E370E945E150E94AE1481E00C9433
:102C30002C159B01883070F49AE0899FB001112413
:102C40006F537D4F4AE050E0C9010E94FA3690E090
:102C500080E008958FEF9FEF08958F929F92AF923B
:102C6000BF92CF92DF92EF92FF920F931F93CF9379
:102C7000DF93CDB7DEB72A970FB6F894DEBF0FBE4D
:102C8000CDBF02E913E0F12CE12C86EBC82E8AE2DD
:102C9000D82E90EEA92E9AE2B92E22EB822E29E2AE
:102CA000922EF801D182C082B382A2829582848260
:102CB000F58AE48ABE016F5F7F4F8E2D0E94191640
:102CC000892B29F489859A85F801938B828BFFEFF4
:102CD000EF1AFF0A0A5E1F4F88E0E816F10409F7B1
:102CE0002A960FB6F894DEBF0FBECDBFDF91CF910D
:102CF0001F910F91FF90EF90DF90CF90BF90AF901A
:102D00009F908F900895CF92DF92EF92FF920F9352
:102D10001F93CF93DF93CDB7DEB72A970FB6F89402
:102D2000DEBF0FBECDBFE1E9F2E080E5DF011D921D
:102D30008A95E9F7ECE4F3E088E3DF011D928A95D8
:102D4000E9F781E9C82E82E0D82E7F0101E113E086
:102D5000F701D182C0824AE050E0B801CE0101966D
:102D60000E94FA3688E0FE013196D60101900D925C
:102D70008A95E1F789859A85D70113969C938E935E
:102D80001297BAE0CB0ED11CE7E0EE0EF11C065F05
:102D90001F4F0136F3E01F07D9F62A960FB6F894B5
:102DA000DEBF0FBECDBFDF91CF911F910F91FF907E
:102DB000EF90DF90CF9008951092420480911A0115
:102DC000E8E9F1E0882359F08091750487FF07C096
:102DD0008EE1DF011D928A95E9F70C945C0E86E086
:102DE000F8CF1F93CF93DF93CDB7DEB7AA970FB677
:102DF000F894DEBF0FBECDBF81EA94E02091F100D0
:102E0000DC012D93CD01B4E0893A9B07B9F780919D
:102E1000A204833009F471C0B8F4813009F448C0C9
:102E2000823009F4B2C08091E80083FF3AC18091FA
:102E3000A1049091A2049A3008F033C1E92FF0E088
:102E4000E659F84C0C94BA368A3009F48DC08B30B0
:102E500009F470C0893039F78091A104813219F7E3
:102E60008091A5049091A604009711F00297D9F6DD
:102E70008091E800877F8093E8008091E80082FFDE
:102E800037C09091F3008091F200029729F480916D
:102E9000F1008B7F813021F48091F10080937C04DC
:102EA0008091E8008B778093E8000E944606BBCFB4
:102EB0008091A104813A09F0B6CF8091E800877F24
:102EC0008093E8008091A5049091A604892B61F479
:102ED00060E28DE794E070E00E94F8068091E800DF
:102EE0008B778093E8009FCF60E090E080E0F3CFA5
:102EF00080919F048111C1CF96CF8091A104813A26
:102F000009F091CF8091A5049091A604892B09F036
:102F10008ACF8091E800877F8093E8008091E80065
:102F200080FFFCCF80911A018093F1008091E8002E
:102F30008E77B9CF8091A104813209F074CF80914E
:102F4000A5049091A604892B09F06DCF8091E8002B
:102F5000877F8093E8000E9446068091A3048093B7
:102F60001A010E94DC165FCF8091A104813209F022
:102F70005ACF8091E800877F8093E8000E94460640
:102F80008091A40480937B044ECF8091A104813A68
:102F900009F049CF8091E800877F8093E800809115
:102FA000E80080FFFCCF80917B04BECF803899F091
:102FB000823809F076C08091A5048F70873008F0C0
:102FC00070C08093E9008091EB0085FB882780F931
:102FD0001092E90006C080919D0490919E04911189
:102FE00082609091E800977F9093E8008093F100D1
:102FF0001092F1008091E8008E77C0C1882309F417
:10300000ADC1823009F04DC08091A3048111B1C1DE
:103010008091A5048F702FEF280F263008F041C053
:103020008093E9002091EB0020FFA3C1933031F49D
:103030008091EB0080628093EB009BC19091EB004C
:1030400090619093EB0021E030E001C0220F8A955F
:10305000EAF72093EA001092EA008091EB00886082
:10306000EACF81111EC01091A3041F778091E30065
:103070008078812B8093E3008091E800877F8093A4
:10308000E8000E9446068091E80080FFFCCF809116
:10309000E30080688093E30082E0111183E0809375
:1030A0009F048091E80083FF0AC08091E800877F39
:1030B0008093E8008091EB0080628093EB00AA96F9
:1030C0000FB6F894DEBF0FBECDBFDF91CF911F9139
:1030D00008958058823028F72091A3043091A404E9
:1030E0002C3DE3E03E07A1F583E08A838AE28983F1
:1030F0004FB7F894DE01139620E03EE051E2E32F53
:10310000F0E050935700E49120FF03C0E295EF7088
:103110003F5FEF708E2F90E0EA30C0F0C7968D933E
:103120009D932F5F243159F74FBF8091E800877F2F
:103130008093E8006AE270E0CE0101960E94F806F2
:103140008091E8008B778093E800ABCFC096E7CF03
:103150008091A5049091A604432F55274330510533
:1031600009F44AC078F54130510509F485C08BE572
:1031700090E0E1E4FAE04230510509F092CF20916D
:10318000E800277F2093E8002091A7043091A8044D
:103190008217930708F49C0140E02115310509F0DE
:1031A00070C041116EC08091E80082FDC9CF80914E
:1031B0009F04882329F2853019F28091E80083FF6B
:1031C000F2CFBECF4132510509F447C0423251051A
:1031D00009F067CF8330910508F063CFFC01EE0F53
:1031E000FF1FE857FE4F0190F081E02D8B579E4F57
:1031F000DC018C9190E01DC0332721303105E9F0CE
:103200002115310579F022303105F9F023303105EF
:1032100009F047CFEEEAFAE0E4918E2F90E0EEEA73
:10322000FAE007C0E2E0FBE0E4918E2F90E0E2E0FC
:10323000FBE0009709F435CFA2CFE2EEFAE0E4918B
:103240008E2F90E0E2EEFAE0F4CFECECFAE0E491BD
:103250008E2F90E0ECECFAE0ECCF8330910508F093
:1032600020CF880F991FFC01E257FE4F0190F0819B
:10327000E02D89E090E083CF82E190E0ECE9FAE094
:103280007ECF80919F04882309F45ACF853009F4BA
:1032900057CF8091E80083FD53CF8091E80082FDF5
:1032A00082CF8091E80080FF78CF9091F3008091E9
:1032B000F2002115310519F08830910550F041E0F8
:1032C000089709F040E08091E8008E778093E8004D
:1032D00064CF44914093F100319621503109019619
:1032E000E8CF803809F0DDCE8091E800877F8093B9
:1032F000E8008091A0048093F1007CCE8111D1CEB2
:103300001091A304123008F0CCCE8091E800877FA2
:103310008093E8001093A0040E944606112311F048
:1033200084E005C08091E30087FDFACF81E08093BF
:103330009F0442E061EC81E00E94650642E261EC9C
:1033400084E00E94650642E261EC82E00E9465062C
:1033500042E260EC83E00E946506A3CE8091A30464
:10336000813009F09ECE81E0933009F080E08093B7
:103370009E041092E9008091E800877F8093E80026
:103380000E9446068ECECF92DF92EF92FF926B01A3
:103390007C010E942A08B701A60188E090E0FF9016
:1033A000EF90DF90CF900C943037EF92FF920F9315
:1033B0001F93CF93DF9300D00F92CDB7DEB7082FC6
:1033C000F62E142FE22E8091790280FF28C0E82F7C
:1033D000E695F0E0E458FE4F9081909368028E7F6E
:1033E000823039F59E012F5F3F4F802F0E943908B0
:1033F0004B8169818A810E94741000937A02F09255
:103400007B0210937C02EE2051F060917902709162
:103410007A0280917B0290917C020E94C3190F90E6
:103420000F900F90DF91CF911F910F91FF90EF9030
:103430000895923019F410917C02DFCF9630E9F6AE
:1034400000917A02DACFE9E7F2E0438121E1421B01
:1034500008F440E021E0628181810C94D519E9E70C
:10346000F2E0438121E1420F08F44FEF21E0628155
:1034700081810C94D519E9E7F2E0628121E1621BB8
:1034800008F460E021E0438181810C94D519E9E7DB
:10349000F2E0628121E1620F08F46FEF21E04381E5
:1034A00081810C94D519E9E7F2E0818121E0438123
:1034B000628188500C94D519E9E7F2E0818121E01E
:1034C00043816281885F0C94D51980917D028823A5
:1034D00019F0815080937D026091790270917A0297
:1034E00080917B0290917C020C94C31980917D02A3
:1034F000833018F48F5F80937D0260917902709120
:103500007A0280917B0290917C020C94C319909175
:10351000790290FF3DC09170811129C09260909313
:103520007902662351F06091790270917A0280915C
:103530007B0290917C020E94C3196091790266958A
:1035400070E041E050E08BE091E00E94D036892BA2
:10355000A9F01092690281E08093650220E0409119
:103560007C0260917B0280917A020C94D51989309B
:1035700010F09061D4CF880F982BD1CF81E0809349
:1035800069020E9468079093630280936202E3CF0E
:103590000895809179028695815009F488E061E070
:1035A0000C94871A8091790286958F5F893008F094
:1035B00081E061E00C94871A9091790290FF07C036
:1035C0009695981720F0961710F40C94D21A61E093
:1035D0000C94871AE9E7F2E083E0808311828FEF91
:1035E00082838383148260817181828193810C94B0
:1035F000C3196AEE7EEF90E080E00E943C3760E005
:1036000082E090E00E941E3760E083E090E00E943C
:103610001E3710927E0260E084E090E00E941E3728
:1036200060E082E290E00E941E3760E085E090E07A
:103630000E941E3760E086E090E00E941E376FEF28
:1036400087E090E00E941E3740E050E0BA0188E039
:1036500090E00E94303760E08DE090E00E941E37DD
:1036600040E050E0BA0188E190E00E94303760E02D
:1036700087E190E00E941E3740E050E0BA018CE103
:1036800090E00E94303770E060E080E290E00E94BD
:103690003C3740E050E0BA0188E190E00E943037CA
:1036A00080E00E942C150E940A1640E050E0BA010A
:1036B0008FE090E00E94303740E050E0BA0183E1B3
:1036C00090E00C9430378F929F92AF92BF92CF923E
:1036D000DF92EF92FF920F931F93CF93DF9300D06F
:1036E00000D0CDB7DEB77C01DC0113964D915C9123
:1036F000149711966C9111978C910E94AC078111CF
:1037000022C161E0C7010E941B148C01F701828174
:103710008111BAC0D70112964C914111F7C0003106
:10372000BFE51B0709F496C10131EFE51E0709F457
:1037300095C1C80197558F3F910511F008F04BC016
:1037400020910001022E000C330B2817390714F4C6
:103750008093000126E1289F5001299FB00C11247D
:1037600095012E563C4F6901D90150964C935097C4
:10377000F701928116968C911697992309F470C1DE
:103780001A961C930E9319978F5F16968C930E942E
:103790006807D6011E969C938E931D9780912802F0
:1037A00017968C9317978091430490914204892B2C
:1037B00018968C931897ED91FC911197309739F0EA
:1037C00054966D917C91C50188569C4F0995109334
:1037D00091030093900380915F0480FF36C00E94A4
:1037E00068076C01D70112968C91882311F18091A2
:1037F000190182FF06C040E0B60190E080E00E941F
:10380000781182E00E94680C0B31BCE51B0709F4BB
:1038100035C10C31ECE51E0709F482C19091190104
:10382000892F8E7F90FF81600A31FCE51F0709F424
:103830007AC10832110508F07CC10E31110508F07B
:10384000BFC10430110508F087C1033FFCE51F0725
:1038500009F4EEC108F0D6C1083D3CE5130709F4B0
:10386000E1C1093D4CE5140709F4F4C1073D5CE5ED
:10387000150709F008C106E221EE41EE67ED7CE58F
:10388000C7010E94F91153C0809100018F3F09F4D4
:1038900041CF52E9C52E53E0D52EB12CA12C99244D
:1038A000939480910001082E000C990B8A159B05BA
:1038B0000CF430CFF6018681882309F18185928549
:1038C0000817190739F48091900390919103081714
:1038D0001907A9F0D6011F969C921F971C961C935E
:1038E0000E931B9751968C91811103C0C6010E94C3
:1038F000EB0CC60106960E940C0D10924304BFEF1C
:10390000AB1ABB0AE6E1CE0ED11CCBCFC801825167
:103910009F45409708F0B8C58FEF93E00E940A37A3
:103920004EEED42ED00E01E613E0882349F18091AB
:103930002402877041F0D70112968C91882319F0E8
:1039400082E00E94940E0F900F900F900F90DF91E5
:10395000CF911F910F91FF90EF90DF90CF90BF908C
:10396000AF909F908F9008950115F4E01F07F9F232
:10397000C8010E940A37811101C0DA940F5F1F4FFE
:10398000D110F2CF19821A821B821C82CC24CA94D5
:1039900048012FEF821A920AC8010E940A378983D0
:1039A0001A82882321F2813009F048C0580132E0A0
:1039B000A30EB11CC4010E940A37982E8A83882363
:1039C00009F4B5CFC5010E940A37D82E8FEF890DB3
:1039D000833068F4580143E0A40EB11CDB82DD2083
:1039E00021F0CE0101960E9460128501D1CF54E0F2
:1039F0009512FBCF580184E0A80EB11CC8010396B4
:103A00000E940A37DD2009F492CF882309F48FCF72
:103A10008150990BC89E9001C99E300D1124AD2D87
:103A2000A150BB0BCD01820F931F0197F0F2EFE97C
:103A3000FFE03197F1F700C00000F7CFCE0101960B
:103A40000E9460125401D1CF81E00E94B00E0E940A
:103A50007D0E6DCF81E00E94880EF9CF82E0FBCF12
:103A6000882309F4B8CEF9018189882309F4B3CEFB
:103A7000C50188569C4F0E940C0DADCE8091190156
:103A8000816080931901F7013281332309F408C55D
:103A90001092E7020230FCE51F0708F433C5063137
:103AA0002CE5120730F0C8018A5F9C45099708F0A1
:103AB00029C50E94421490937604809375040031C6
:103AC0003CE5130709F474C108F007C108305CE550
:103AD000150709F463C108F0D6C004309CE5190746
:103AE00009F454C108F0BCC00230BCE51B0709F45E
:103AF00047C180917504826003301C4509F443C1BD
:103B0000609175041091760484E090E00E941E3765
:103B1000612F82E290E00E941E370E94DC1607CFE0
:103B2000809119018E7F8093190182E00E94680CB8
:103B3000AACF0933110560F40D32110520F40B32C0
:103B4000110509F082CE80915F0482FD7ECE08C00F
:103B500004361105C1F379CE80915F0484FD75CEE2
:103B6000D70112968C91882309F446C080911901DF
:103B700080FF6BCE90915F0491FD04C020914204C0
:103B8000211163CE95FF27C020916804309169040C
:103B9000F601E21BF30B9F0196FD02C081FD1BC0E5
:103BA000283C3105C0F42091660430916704021767
:103BB000130789F481FD09C0802F0E94C310B7CE7E
:103BC00080915F0483FD41CECBCF8091430482601E
:103BD00080934304F1CF1093670400936604D0925E
:103BE0006904C0926804809119018460809319016E
:103BF00082E00E94940E9BCE40E0B601C8010E9474
:103C0000781195CE053F8CE51807F1F0B8F0063F26
:103C1000ACE51A0709F037CF07E225EE46EE66EF6E
:103C20007CE52ECE07E225EE45EE68ED7CE528CE5C
:103C300006E221EE40EE63EF7CE522CE07E225EEC0
:103C400044EE64EF7CE51CCE06E221EE42EE65EF29
:103C50007CE516CE08E221E045EE69ED7CE510CE6C
:103C60008091750480610630FCE51F0709F48BC064
:103C700080917504886007301C4508F484C08091E9
:103C80007504806280C0809175048D7F0C303CE5A6
:103C9000130709F478C070F4809175048C600A30C1
:103CA0005CE5150709F46FC008F47CC080917504C9
:103CB0008E7F69C080917504877F0E309CE519075F
:103CC00009F461C0809175048B7F0F301C4508F4A6
:103CD0005AC0809175048F7E56C00B3FBCE51B0710
:103CE00009F458C030F50331FCE51F0709F468C03A
:103CF00078F401313CE5130709F45EC002311C453C
:103D000009F0FECE0E94DC16809175048F773BC0CF
:103D100005315CE5150709F45BC008F46FC08091BC
:103D2000760481600A3F1C4509F0EACE8093760450
:103D3000E7CE0F3FACE51A0709F446C088F480913E
:103D400076048D7F0D3FECE51E0781F380917604AC
:103D50008E7F0E3F1C4550F3809176048360E6CF42
:103D600001302DE5120709F452C0F0F160E0023095
:103D70001D4509F0C5CE8EE090E00E941E37C0CEF2
:103D800080917504816080937504BACE809175042A
:103D90008460F9CF809176048260C8CF80917504E9
:103DA0008064F1CF0E94DC16809175048068EBCFAF
:103DB000809175048F7DE7CF809175048F7BE3CF71
:103DC00080917504837FDFCF809176048C7FAECFA6
:103DD0008091750482FB992790F921E0922790FB4E
:103DE00082F990FB83F9CFCF80917604982F90953C
:103DF00091708E7F892B90FB81F998CF0E94DC1601
:103E000090917504892F97FB87F98058BCCF61E0AA
:103E1000B2CF8091B601811104C089E20E94570D92
:103E20006EC385E3FBCF073C3CE5130709F475C07F
:103E300008F46EC0083C5CE5150709F473C043E262
:103E40005AE16FE27AE1093C9CE5190709F07BC36E
:103E50000E9424086CCD0E3CACE51A0709F471C031
:103E600078F40C3CECE51E0709F466C045E65AE11F
:103E700066E77AE10D3C1C4558F361E081E036C00D
:103E8000063D2CE5120748F468E086E0003D1C453D
:103E900008F04DCD0E94DC1A4ACD0D35100709F40B
:103EA00046CD51C38091790280FF1BC08E7F8093E5
:103EB00079026091790270917A0280917B029091EF
:103EC0007C020E94C319109269025FEF80E792E0C2
:103ED000515080409040E1F700C000000E943F1028
:103EE00026CD81608093790261E086950E94871AD1
:103EF0001ECD49EC5AE162ED7AE1AACF42ED5AE1DA
:103F000069EC7AE1A5CF43E55AE16CE57AE1A0CF0F
:103F10004CE55AE163E57AE19BCF4BE35AE167E474
:103F20007AE196CF47E45AE16BE37AE191CF4FE231
:103F30005AE163E27AE18CCF46E75AE165E67AE13D
:103F400087CF65E082E0A6CF0B352DE5120701F1A2
:103F50000C351D4509F007C38091760482FB882744
:103F600080F991E089270E944415FDC20E94DC1669
:103F70004FEF54E38CE0415050408040E1F700C0E7
:103F800000000E9411100E94F91AD1CC81E0EBCF01
:103F900080E0E9CF828100811181882369F0C80126
:103FA0000E94A913D82E682FC8010E940D0EB801D7
:103FB0008D2D0E948D13DDC2C8010E94E00DD82E08
:103FC000F6CF202F2F70B22E802F807F19F0B29461
:103FD00090EFB922CC20C9F0BB2069F080E2810FBC
:103FE000883010F011110BC080914204B82AB092B1
:103FF00042040E94970C812F0E94C31016C080912A
:104000004304B82AB0924304F4CF812F0E94F70EE4
:10401000BB2059F080E2810F883010F0111133C0BD
:104020008B2D0E946F0C0E94970CA92DA850BB0BE2
:10403000149710F40E94A007812F902F0E943D0E2C
:10404000811103C21092B8011092B701AA20B1F0F9
:104050008091240280FD12C0D70112961C92859592
:10406000859585950E94B00EC7010E94631B8091C3
:1040700024028595859585950E94880E60E0C7018C
:104080000E941B1460CC8B2D0E94680CCCCF302F6B
:104090003F70B32E802F807F803219F0B29480EF72
:1040A000B822112321F1113009F46DC0CC2009F49C
:1040B00076C0DD2009F448C020E0D7014C9111966C
:1040C0005C91119712966C91129713967C911397AD
:1040D00014968C910E94F2138091610481FD8BCF24
:1040E000F701858180FF87CF8F7085832DC0CC201D
:1040F00069F1D11006C0809128028B290E94ED0E33
:1041000094CF41E0D41213C08091760482FD8DCF0C
:1041100080912802B82AB81609F487CF0E94680750
:104120009093270280932602B09228027ECF80913E
:104130006004823000F3D812DECF0E945D0C8091C3
:104140002102B812B09221028B2DD8CFD11006C017
:104150000E945D0C8B2D0E94E60E67CF809160045B
:1041600051E0D5120BC0823008F45FCF8091420439
:104170008B2109F45ACF0E94510DEACF823040F3CF
:10418000D812E6CF52CFCC2029F085E08D1508F467
:104190004CCFDACF94E09D1508F447CFDBCFDD207C
:1041A000C9F28091640490916504193321F08091E3
:1041B0006204909163040E943510812F0E94F70ED3
:1041C00034CF802F86958695837069F0813009F011
:1041D0002CCF812F902F9370C11002C090E080E00F
:1041E0000E94740722CF812F902F9370C11002C0BC
:1041F00090E080E00E948A0718CF812FCC2039F010
:104200000E94110A0E94CF080E94CF080ECF0E9480
:10421000F608FACF802F837091F5C11006CF412F99
:10422000429546954770440F440F812F8F70042E9E
:1042300001C0880F0A94EAF7212F207114FF07C0EC
:104240002FE030E001C0220F4A95EAF72095302F89
:10425000369536953370323069F050F440917E02D5
:10426000313029F0822B84230E94D10EDECE842BA4
:10427000822BFACF282B80917E028227F5CF86955C
:10428000CC2011F0802F8170882309F4CECE412FED
:10429000429546954770440F440F812F8F70042E2E
:1042A00001C0880F0A94EAF7212F207114FF07C07C
:1042B0002FE030E001C0220F4A95EAF72095302F19
:1042C000369536953370323069F050F44091A90438
:1042D000313029F0822B84230E94790EA6CE842BC4
:1042E000822BFACF282B8091A9048227F5CFF02FBB
:1042F000FF70BF2ECC2029F08F2F0E94B00E812F8F
:10430000FDCE812F0E94E60E8B2D0E94880E8DCE51
:10431000123F09F44AC060F4103F41F1113FE9F146
:10432000CC2009F48DC0D11066CE802F8F713AC099
:10433000133F09F43FC0143F99F7209160042230E5
:1043400008F466C080912102CC2009F44EC00E947E
:104350006F0C8091240287708430C1F50E94760C26
:10436000802F8F710E94880EA12C5FCECC2081F00F
:1043700024E02D1508F459CE202F2F7181E090E014
:1043800001C0880F2A95EAF79091A9048927A4CF44
:1043900035E03D1508F449CEEFCF802F8F71CC204A
:1043A00009F4B3CF0E94B00E40CE802F8F71CC2085
:1043B000C9F3ABCF80E0CC2009F48ECF81E0902F01
:1043C0009F7101C0880F9A95EAF786CF80916004AB
:1043D000D81650F6402F4F71B42E842F0E94B00E85
:1043E00063E08B2D0E94BB0EBFCF90914204982BAF
:1043F00090934204D21640F00E94760C0E94510D18
:1044000064E0802F8F71EECF81E00E94940EACCFDC
:10441000CC2059F0502F5F71B52E852F0E94B00E21
:1044200063E08B2D0E94BB0E00CE81E00E94940EB3
:1044300081E08D1508F0F9CD82E00E94940EF5CD53
:10444000D110AFCE802F8F7160CFCC2019F0D1105A
:10445000F9CDFCCDD110F6CD20E0F701408151819E
:104460006281738184810E94F2138091610483FFD1
:10447000E9CD8091B7019091B801029709F0E2CDA2
:10448000812F0E94D811DECD0031FFE51F0709F40E
:10449000DBCA01312FE5120709F04BC982E0D5CA0A
:1044A00006311C4509F05FC080914204982F9A7A2A
:1044B00020915E0420FF04C0482F447409F090E06E
:1044C00021FF04C0482F417109F090E022FF04C091
:1044D000482F487809F090E023FF03C0827209F06A
:1044E00090E0332309F495CC81E0911101C080E084
:1044F0008093B60189E2911185E30E94820D0E94AA
:10450000970C15CA06315CE5150771F280914204DB
:1045100082720A3C5CE5150709F409CD08F09BCCD2
:10452000053CACE51A0709F4EECC08F07CCC033C62
:10453000ECE51E0709F4DDCC08F0E0CC023C2CE5EC
:10454000120709F4AFCC0A35ADE51A0709F41ECD00
:1045500008F0FACC0115ECE51E0709F407CD0E3D75
:104560001C4509F410CDF70186819781009709F465
:1045700011CD0E94D50A182F092FF701C280D580CE
:10458000D2943FE0D322809124028770A1F0AC2C1A
:10459000CC2091F0892F807F803421F080E2810F40
:1045A000883048F082E00E94940E80912402877047
:1045B000AA24A3948111A12C902E92942FE09222F0
:1045C000FBE0F91508F431CDE92DF0E0EC58F84C9A
:1045D0000C94BA36CF92DF92EF92FF920F931F9313
:1045E000CF93DF938091DC01807F31F48091D901FA
:1045F000C091200281110BC0DF91CF911F910F91CB
:10460000FF90EF90DF90CF9008952196C770809132
:10461000DF018C1789F3F090D701E090D801C090AA
:10462000DA01D090DB01A6016E2D8F2D0E94AC0720
:10463000D0E08111EACF8E0183E0000F111F8A952F
:10464000E1F7F801E052FE4F81818E11DECF8081CB
:104650008F11DBCF82818111D8CFE380F480EC18F9
:10466000FD0860E087ED91E00E941B1480915C04DE
:1046700090915D04E816F90640F68091DC018F7098
:1046800080618093DC01F801EB51FE4F80818F70D7
:104690008061808387ED91E00E94631BDF91CF9161
:1046A0001F910F91FF90EF90DF90CF900C94D60D5B
:1046B0005F926F927F928F929F92AF92BF92CF92B2
:1046C000DF92EF92FF920F931F93CF93DF93CDB7BB
:1046D000DEB765970FB6F894DEBF0FBECDBF8C0175
:1046E00085E0F801DE01519601900D928A95E1F77F
:1046F000D8011296EC9087EDA82E81E0B82E80901C
:10470000DA019090DB01A4016091D8018091D7017A
:104710000E94AC078111EAC1F801C380D480F090F7
:10472000D901C601881999094C01FF2009F47AC101
:104730005080618060E0C5010E941B1480915C0480
:1047400090915D047090DC018816990608F01DC1F7
:104750004091DA015091DB01B090D701A090D801CF
:10476000872D807F6A2D09F0B7C08B2D0E94AC0782
:10477000FE2C811139C0D80111968C9111978A11A4
:1047800033C08C918B1130C02091DD013091DE015E
:1047900016968D919C912817390731F5E11024C0A8
:1047A000872D8F7080618093DC0187ED91E00E94FE
:1047B000631B8091DC01F80185838F2D65960FB610
:1047C000F894DEBF0FBECDBFDF91CF911F910F9147
:1047D000FF90EF90DF90CF90BF90AF909F908F9021
:1047E0007F906F905F90089560E087ED91E00E9468
:1047F0001B1480915C0490915D04843F9140F8F01B
:10480000A601662D852D0E94AC0781114CC081E068
:104810008E2580FF1DC04E2D662D852D0E94B60D64
:104820008823B1F087ED91E00E94631B88E0E7EDFB
:10483000F1E0DF011D928A95E9F7F12CBECF60E02F
:1048400087ED91E00E941B148091610480FDD8CF18
:10485000A601662D852D0E94AC07811126C081E03E
:104860008E25B82FB170CB2E80FF2DC04E2D662D1A
:10487000852D0E94B60DD82E811125C0598A6A8ACD
:1048800089899A890E94D813292F22952F70223066
:1048900070F0243098F49F7071F0F8019581907F4A
:1048A00051F4FD2C8ACF80E0B4CF80E0DACF9F7046
:1048B00011F08823B1F3805E883098F3C8010E941C
:1048C000631BDC2CEECFEE2009F477CF8091DC0166
:1048D00081608093DC01B1CF8B2D0E94AC078111E8
:1048E00024C0D80111968C9111978A111EC08C9109
:1048F0008B111BC02091DD013091DE0116968D9148
:104900009C9117972817390781F4E1100EC015966E
:104910007C92C8010E94631B88E0F801A7EDB1E01A
:1049200001900D928A95E1F748CFC8010E94E413E7
:10493000882339F1EE2029F18091DC018032A0F04A
:104940002091D7013091D8013A8729871B86DD86CF
:10495000CC868E878091DD019091DE01988B8F87C8
:10496000CE0109960E94631B88E0F801A7EDB1E033
:1049700001900D928A95E1F70E94EA22FF24F394B8
:104980001CCFC8010E94631BF9CF872D807F09F4DB
:1049900049CF9090D7018090D8014091DA01509191
:1049A000DB01682D892D0E94AC0781111CC0F80124
:1049B0008181881118C08081891115C02091DD0185
:1049C0003091DE01868197812817390761F4E11063
:1049D0000AC07582C8010E94631B88E0D5011D9240
:1049E0008A95E9F7EACEC8010E94E413882349F2C8
:1049F000EE2039F28091DC01803208F4B5CF2091AD
:104A0000D7013091D8013A8329831B82DD82CC8281
:104A10008E838091DD019091DE0198878F83CE0196
:104A20000196A0CF60E087ED91E00E941B14809179
:104A30005C0490915D048816990608F051C0FE2C24
:104A4000EE2009F49ECFE090D701D090D80140919C
:104A5000DA015091DB016D2D8E2D0E94AC07811182
:104A600031C0F80181818D112DC080818E112AC045
:104A70002091DD013091DE01868197812817390769
:104A800009F560E087ED91E00E941B1480916104BC
:104A900082FD42CF9091DC0190FD3ECF907F09F4E2
:104AA0003BCF8091DC01D80115968C931597903FF0
:104AB00009F42FCF982F907F905F8F70892B1596D8
:104AC0008C9327CFC8010E94E41381114DCF8091B0
:104AD000DC0181608093DC01C8010E94631B6DCE04
:104AE00088E0F50111928A95E9F767CEEE2009F486
:104AF00048CFC8010E94E413F82E882309F441CF5F
:104B000088E0F801A7EDB1E001900D928A95E1F7F8
:104B10008091D7019091D8010E94D8130E94EA2277
:104B20004CCECF93DF93CDB7DEB760970FB6F89436
:104B3000DEBF0FBECDBF29873A874B875C876D8765
:104B40007E878F87988BCE0109960E94582381110A
:104B50002FC088E0FE013996DE01119601900D927A
:104B60008A95E1F74C855D856A8589850E94AC0749
:104B700081111EC0A091DF01B0E0CD0101968770C8
:104B80009927209120022817190609F193E0AA0F0E
:104B9000BB1F9A95E1F7A052BE4F98E0FE013196F7
:104BA00001900D929A95E1F78093DF010E94D60D56
:104BB000809120029091DF01891317C060960FB693
:104BC000F894DEBF0FBECDBFDF91CF9108950E9454
:104BD000DC161092DF011092200288E0E7EDF1E090
:104BE000DF011D928A95E9F7E3CFB8E08B9FC00102
:104BF000112480529E4F0E9458238823F9F28091FD
:104C0000200290E001968770992780932002D0CFF0
:104C1000EF92FF920F931F93CF93DF938091EB025C
:104C2000882361F0C091EA028CE0F82E8091EB02BB
:104C3000C81758F01092EB021092EA02DF91CF9160
:104C40001F910F91FF90EF900895EE24E394EC0EE6
:104C5000E092EA020C2F10E0CF9DE0011124C45134
:104C6000DD4F4B815C81698188810E94AC07811195
:104C70001BC08E819F81892B21F48885998501969F
:104C800051F4288139814A815B816C817D818E81DB
:104C90009F810E949125F09EF001F19EF00D11245C
:104CA000E451FD4F14821382CE2DC0CF10928F039A
:104CB00010928E031092160180918D0380938C03C5
:104CC0000E94E5070C9408263F924F925F926F92E4
:104CD0007F928F929F92AF92BF92CF92DF92EF928C
:104CE000FF920F931F93CF93DF93C0918C0397E0B4
:104CF000892E01E010E02CE0322E3EEF932E44246A
:104D0000439480918D038C1315C00E940826DF9177
:104D1000CF911F910F91FF90EF90DF90CF90BF90B8
:104D2000AF909F908F907F906F905F904F903F904B
:104D30000C94E507D0E0FE01EE0FFF1FEC57FC4F8F
:104D400080819181889ED001899EB00D1124A45B41
:104D5000BC4F14962C911497211157C05090EB0220
:104D6000ECEEF2E030E020E0712C5D01251508F05A
:104D70004AC0E284F384D501CD90DC906FEF7FEFE1
:104D8000612C462D50E0DA01AA0FBB1FAC0DBD1DF2
:104D90000D90BC91A02D109731F0EA16FB0609F496
:104DA000BA016394EECF6F3F7607A1F1D80102C03C
:104DB000AA0FBB1F6A95E2F77A2AB80102C0660FF4
:104DC000771F6A94E2F7AB0141505109741615063A
:104DD000F9F4329EF001339EF00D1124E451FD4FA1
:104DE000889ED001899EB00D1124A45BBC4F129601
:104DF0002D913C91139737832683908291829187DE
:104E0000808715964C920E94B7072196C37079CF80
:104E1000148213822F5F3F4F3C96A8CF2F923F9270
:104E20004F925F926F927F928F929F92AF92BF92BA
:104E3000CF92DF92EF92FF920F931F93CF93DF9366
:104E4000CDB7DEB769970FB6F894DEBF0FBECDBF02
:104E5000942F498B252F5A8B6B8B7C8B8D8B4C8998
:104E60005D89622F892F0E94AC07811109C0809152
:104E7000B7019091B80101969093B8018093B70162
:104E80008B898111109243041D861E861F86188A05
:104E900085E0FE017196DE01199601900D928A95CA
:104EA000E1F78091460490914704892BC1F00E945C
:104EB00068072091220230912302821B930B2091DC
:104EC0004604309147048217930720F08091240212
:104ED00082FFF5C10E947D0C81110E945D0C4C8502
:104EE0005D856A8589850E94AC07811111C061E0EA
:104EF000CE0109960E941B146C018B8527EFC21608
:104F00002CE5D20681F4882321F181E080931601FB
:104F100029853A854B855C856D857E858F85988949
:104F20000E949125C5C038EFC3163CE5D30629F48D
:104F3000882379F00E945626EBCF49EFC4164CE542
:104F4000D40639F4882329F0809116018111F2CF1B
:104F5000DCCF0CE413E0512CB12CA12C222423949F
:104F6000312C2EEF422EF8014081518188248A9401
:104F7000982C20E0822F90E0FC01EE0FFF1FE40F41
:104F8000F51F608171816115710531F0C616D70674
:104F900009F44C012F5FEECFF12CFFEF8F169F0627
:104FA00009F448C0F8014481F09016018F2D411199
:104FB00080E0F82FF170FF2EF801E58086819B8557
:104FC000992309F40CC1FF2009F409C160905A0427
:104FD00070905B04E11012C0A10101C0440F8A94DB
:104FE000EAF7842B86838091E8029091E902861586
:104FF000970520F47092E9026092E802C10102C0B4
:10500000880F991F2A95E2F70197F8012681281742
:10501000190681F480918E0390918F03009709F413
:1050200060C00E9459076816790608F05AC021E04E
:10503000F80124835F28FFEFAF1ABF0A095F1F4FF3
:1050400028E0A216B10409F08ECF8B85882309F4DD
:1050500021C1552009F41EC10E94680790938F0357
:1050600080938E038091EB02883010F591E0980FC9
:105070009093EB0298E0FE013996DE0111960190C3
:105080000D929A95E1F73CE0839FC0011124845171
:105090009D4F28E0FE013196DC0101900D922A958A
:1050A000E1F72FEF3FEFFC0131872087D386C286DF
:1050B00069960FB6F894DEBF0FBECDBFDF91CF91DA
:1050C0001F910F91FF90EF90DF90CF90BF90AF9026
:1050D0009F908F907F906F905F904F903F902F9018
:1050E000089580918C0350918D03982FF0E0E0E0BB
:1050F000851314C090938C03E017F10709F49ACF3D
:1051000090E0FC01EE0FFF1FEC57FC4FB182A08234
:1051100001968370992780938D038CCF682E712C14
:10512000F301EE0FFF1FEC57FC4F2081318147E068
:10513000429FD001439FB00D1124A45BBC4F6D91E1
:105140007C911197798F688F40E020E030E0E32F69
:10515000F0E0EE0FFF1F688D798DE60FF71F80805E
:10516000918081149104E1F0F8010190F081E02D2B
:10517000FF8BEE8B20E005C08616970609F44F2DB5
:105180002F5FE22FF0E0EE0FFF1F6E897F89E60FA1
:10519000F71F608171816115710571F73F5FD7CF8E
:1051A0004423D1F0F801231708F0FD0121E0248306
:1051B0000E171F0721F490938C03F42E3BCF981306
:1051C00005C0AE17BF0711F49F5F937093012F5F67
:1051D0003F4F822F83708CCFF0E0E0E0F7CF90E07C
:1051E000E1101FC0B10102C0660F771F2A95E2F7D8
:1051F0009B01215031098217930731F4442309F4AC
:1052000047C0C5010E94B707C10101C0880F8A9439
:10521000EAF7982F9095F801868189238683FE2CE2
:1052200009CF9C01082C02C0359527950A94E2F716
:10523000A90141705527BC0161507109862397234C
:10524000892B11F5452B01F1F80182819381892B7E
:10525000C1F01B821C821D821E8249824A820E94EA
:1052600068078160582F9D838C83F8018281938128
:105270008F83988729813A814B816D817E810E943D
:105280009125F8011582C0CFF22FF170EF2EBCCF1F
:10529000EF2CBACF90918C0380918D03981731F049
:1052A0000E946426552009F433CE02CF0E940826BE
:1052B00010928F0310928E030E94E507F3CF82E0D5
:1052C0000E94940E07CE0F931F93CF93DF9300D0CD
:1052D00000D00F92CDB7DEB78C019093E20280939D
:1052E000E102011580E2180720F5802F0E94F70ED9
:1052F000C8010E944D0F9801205E31092830310508
:1053000010F0012B59F40F900F900F900F900F9009
:10531000DF91CF911F910F910C94E60E0F900F909B
:105320000F900F900F90DF91CF911F910F910C94E0
:10533000D50E8EEF89838A831B820E946807816065
:10534000782F9D838C8349815A816B818D810F9049
:105350000F900F900F900F90DF91CF911F910F91B1
:105360000C940E270F931F93CF93DF938C01EB01C7
:1053700067E872E08C2F0E941916892BA1F48091A6
:105380006204909163040E943510DD27C158DD4FFF
:105390008881F80110821882833009F148F4813045
:1053A00059F0823081F0DF91CF911F910F910895D4
:1053B0008430D1F08530B9F78091870290918802CE
:1053C000009789F306C08091890290918A02009724
:1053D00099F3DF91CF911F910F910C9463298091E4
:1053E0008B0290918C02F3CF80918D0290918E026E
:1053F000009779F720918702309188028091890285
:1054000090918A0221153105D9F2009711F7C9014F
:10541000E0CF0F931F93CF93DF9300D000D00F9274
:10542000CDB7DEB78C019093E2028093E1020115C3
:1054300080E21807E8F4C8010E944D0F9801205E31
:1054400031092830310518F00115110571F40E9459
:10545000ED0E802F0F900F900F900F900F90DF9117
:10546000CF911F910F910C94C3100E94DC0EF1CFCD
:105470008EEF89838A8381E08B830E946807816035
:10548000782F9D838C8349815A816B818D810F9008
:105490000F900F900F900F90DF91CF911F910F9170
:1054A0000C940E27AF92BF92CF92DF92EF92FF92B1
:1054B0000F931F93CF93DF93B82EA62EC090A9040D
:1054C00080917E02C82AC7E0D0E0D12CF12CE12CDB
:1054D000D701C6010C2E04C0B695A7959795879560
:1054E0000A94D2F780FF20C04A2D6B2D8C2F0E948A
:1054F0002E138C0181309105B9F00E94092A8FE3A7
:105500009CE90197F1F700C00000C8010E946329DF
:1055100081E0DF91CF911F910F91FF90EF90DF908D
:10552000CF90BF90AF900895219790F64A2D6B2DA4
:1055300080E00E942E13EC010E94092A8FE39CE96F
:105540000197F1F700C00000CE01E0CFCF93DF93C9
:10555000EC010E94092A80916204909163040E94E8
:105560003510CE01DF91CF910C9463290F931F93D7
:10557000CF93DF938C01862F67E872E00E941916A3
:10558000892BC9F4C0918702D0918802209799F0A5
:10559000F8018081833069F4CE010E94A62ACE01F1
:1055A0000E94A62ACE01DF91CF911F910F910C94FA
:1055B000A62A8430B8F7DF91CF911F910F910895FB
:1055C0000F931F93CF93DF938C01EB0167E872E099
:1055D0008C2F0E941916892B09F064C0FE01FF2749
:1055E000D8018C91E158FD4F8130D9F419969C91E6
:1055F0001997992311F080830CC01A969C919923D6
:10560000D1F382E080838091890290918A02009791
:10561000D9F48091870290918802009709F442C0E2
:1056200013C08230E9F519968C91199781112DC01C
:105630001A968C9181110EC083E0808380918B0239
:1056400090918C02009719F1DF91CF911F910F91EA
:105650000C94092A84E0808380918D0290918E02BF
:10566000009791F780918702909188020097F9F056
:105670000E94A62A8091890290918A02009721F7C0
:105680008091870290918802DFCF85E080838091AE
:10569000870290918802009729F00E94A62AF0CFF5
:1056A00086E08083DF91CF911F910F9108958091C3
:1056B000890290918A02B1CF8F929F92AF92BF924E
:1056C000CF92DF92EF92FF920F931F93CF93DF93CE
:1056D000CDB7DEB72A970FB6F894DEBF0FBECDBFA9
:1056E0008E010F5F1F4F8AE0F80111928A95E9F74A
:1056F00094E5E92E91E0F92E6801AA24A394B12C37
:10570000F70181917F018F3F09F44BC0F894E82F96
:10571000E295EF70F0E021A18F70A50102C0440F67
:10572000551F8A95E2F7CA01922F982B91A392A157
:105730008095892382A3789400C0E9E5F1E030E008
:1057400020E0912C812C81918F3F09F486C0A82FF5
:10575000A295AF70B0E090964C9150E08F7002C06F
:10576000559547958A95E2F740FD77C0C501022E11
:1057700002C0880F991F0A94E2F7882A992A2F5F9E
:105780003F4F2F303105F9F6F701319780818F3F78
:1057900011F00E947B0A50EA5A95F1F7F6019182C6
:1057A0008082F2E0CF0ED11C49E5E41641E0F40618
:1057B00009F0A6CF4AE050E0B8018CE292E00E94E6
:1057C000DD36DD24D394009709F4D12C892B09F41C
:1057D00047C08AE0F801ACE2B2E001900D928A95F0
:1057E000E1F781E080932B020E94680790932A02E0
:1057F000809329028091290290912A020E945907E0
:10580000059790F180912C0290912D0290934C027B
:1058100080934B0280912E0290912F0290934E0222
:1058200080934D028091300290913102909350020A
:1058300080934F02809132029091330290935202F2
:1058400080935102809134029091350290935402DA
:105850008093530210922B0207C090E080E08DCF1E
:1058600080912B028111C6CF809100018F3F09F0FA
:1058700077C080911601811177C080915F0480FF0D
:105880001CC08091190182FF18C00E9468072091F6
:10589000680430916904AC01421B530B209117013D
:1058A000309118014217530740F041E0BC0180914C
:1058B0006604909167040E9478118D2D2A960FB688
:1058C000F894DEBF0FBECDBFDF91CF911F910F9136
:1058D000FF90EF90DF90CF90BF90AF909F908F9010
:1058E0000895E29EF001E39EF00D1124EE56FC4F68
:1058F000A288B388A114B10421F4A0905C04B090F4
:105900005D04E29E8001E39E100D11240E561C4F93
:10591000F80186818823C1F0858596850E94590704
:10592000A816B90688F4FE9C50011124F80181895B
:10593000811105C0C5018E569C4F0E94EB0CC5011C
:1059400088569C4F0E940C0DF3942F2D30E08091CF
:105950000001082E000C990B8217930714F689CFCB
:10596000F12C86E1E82EF1CF80918E0390918F0388
:10597000009709F482CF0E9459072091E8023091E4
:10598000E9022817390708F078CF90918C038091AD
:105990008D03981759F00E9464261092E902109224
:1059A000E80210928F0310928E0367CF0E940826A0
:1059B00010928F0310928E030E94E5075ECF90E055
:1059C00080E00E9418378A3E9E4F11F40C942914EF
:1059D00080E008951F920F920FB60F9211242F931B
:1059E0003F934F935F936F937F938F939F93AF9367
:1059F000BF93CF93DF93EF93FF93D091E900DF70D4
:105A00008091EC00C82FC17080FDC0E81092E900C1
:105A10008091F000877F8093F00078940E94F116C7
:105A20001092E9008091F00088608093F000CD2B07
:105A3000CF70C093E900FF91EF91DF91CF91BF91BB
:105A4000AF919F918F917F916F915F914F913F9116
:105A50002F910F900FBE0F901F9018951F920F92CD
:105A60000FB60F9211242F933F934F935F936F9331
:105A70007F938F939F93AF93BF93EF93FF93809107
:105A8000E10082FF09C08091E20082FF05C08091A1
:105A9000E1008B7F8093E1008091DA0080FF24C0D9
:105AA0008091D80080FF20C08091DA008E7F8093A3
:105AB000DA008091D90080FF9BC080E189BD82E13E
:105AC00089BD09B400FEFDCF81E080939F048091E1
:105AD0007A04811109C00E94CC050E94970680912A
